:020000040000FA
:06000000020E410205851D
:03002B00020BF0D5
:030033000201EED9
:030053000204B4F0
:03005B00020B0D88
:03007B0002035A23
:100083000205160101FFFFFFFFFFFF6404010600E5
:10009300000000000000000101010101010B89269D
:1000A300892088FB864882CB842B8792885B856175
:1000B300884987A888EB86A782C68221839611F098
:1000C300010000029A8A02928A00F0FF07000800EA
:1000D30000FFFF0000050400000003000147726FEA
:1000E300757000FF0400100020FD00020206FFFFF0
:1000F300FFFF1E4119000000000000000000000087
:10010300000000000000000000000047190000008C
:1001130000000000000000000000000000000000DC
:1001230000000000000000000000000000000000CC
:10013300000000000000000000000000004D190056
:1001430000000000000000000000000000000000AC
:10015300000000000000000000000000000000009C
:10016300000000000000000000000000000000008C
:1001730000000001010A040150000003C0890000CF
:1001830000010400008D110000002C010000FFFF9E
:10019300021201881300002C01000064006400B8FF
:1001A30001A0BB0D00A0BB0D000202020704010564
:1001B3001E02051E020A0A0108080103B80B028089
:1001C3003E0102FEFFE8030A050001FFFF020A01E8
:1001D3001401E005030101FF0F9A2C000000006EDB
:1001E3002B00000000FF000000FF00C0E074F112CC
:1001F3000804A2AFE433FED2AF539AFD53ACFEA280
:10020300A050030202907A587B1B1227E71203497E
:10021300A2C150030202C2A2A050F212033D9003F6
:100223006EC3E094D0A3E094074062900368E4F0C7
:10023300900369801CECF4FA88828983E05AF09079
:100243000369E004F0E064087008E4F0900368E0F8
:1002530004F01203497A907B011227E7A2A05045CC
:10026300A2C150F8C2C1900368E06021900369E025
:10027300701B900368E0640870077A047B031228FC
:10028300117A207B00901145E0F9121575439A020B
:1002930043AC01758B00C2E8751A00EEA2E092AF81
:1002A3007F020208631227E190036CEAF0A3EBF0EC
:1002B3007A907B011227E7A2A04008A2C150F8C29E
:1002C300C180CA12033D90036CE0F8A3E0F99003E8
:1002D3006EE028F8A3E039F990036AE8F0A3E9F0A7
:1002E30090036AE02488F8A3E034FFF9C3E894E7B5
:1002F300E994005098750801750900900369E07846
:1003030008120DEDE508FC900368E0F8740428F882
:10031300E43403F990036EC08290036CE0FAA3E027
:10032300FB758303D082C3E09AA3E09B40030202E0
:100333003888828983E04C0202411227E190036EE0
:10034300EAF0A3EBF022E5C9540F44A0F5C9E5C9CF
:10035300540F4450F5C922C0E074F1120804A2AF4F
:10036300E433FED2AF539AEF538DBFA29640787A0F
:10037300587B1B1227E71204A3A2C1500302041CDB
:10038300A29650F21204979003DAC3E094D0A3E04C
:10039300940740539003D4E4F09003D5801CECF40D
:1003A300FA88828983E05AF09003D5E004F0E06490
:1003B300087008E4F09003D4E004F01204A37A90E8
:1003C3007B011227E7A2965036A2C150F8C2C19012
:1003D30003D4E060129003D5E0700C7A207B009088
:1003E3001145E0F9121575439A10438D40758A0043
:1003F300C2EB751A00EEA2E092AF7F02020863120D
:1004030027E19003D8EAF0A3EBF07A907B0112275F
:10041300E7A2964008A2C150F8C2C180CA1204974D
:100423009003D8E0F8A3E0F99003DAE028F8A3E01A
:1004330039F99003D6E8F0A3E9F09003D6E02488D5
:10044300F8A3E034FFF9C3E894E7E9940050987502
:1004530008017509009003D5E07808120DEDE50851
:10046300FC9003D4E0F8747028F8E43403F99003A3
:10047300DAC0829003D8E0FAA3E0FB758303D0824D
:10048300C3E09AA3E09B40030203A188828983E02F
:100493004C0203AA1227E19003DAEAF0A3EBF0225D
:1004A300E5C9540F44A0F5C9E5C9540F4450F5C933
:1004B30022C0E074F1120804A2AFE433F509D2AF0D
:1004C30085A708AFA1EF5508FE74105E60061212EF
:1004D3006F75A1EF74085E600812127575A1F7803D
:1004E30024EFA2E092F0E508A2E082F050179061B9
:1004F30098E0F89004A6E0C398A2D265D0335002E6
:10050300E8F075A1FE751A00E509A2E092AF7F023B
:10051300020863C0E074F2120804A2AFE433FED20F
:10052300AF9061A4E0F8759B00E59158540860080A
:100533007591F71212C38023E59158541060087522
:1005430091EF1212C98014E591A2E092F0E8A2E0C3
:1005530082F05007E0C2E0F012141F9061A3E0F8AC
:10056300E5E9585404600E1213F575E9FB906193A5
:10057300E0A2E640F2751A00EEA2E092AF7F01021C
:100583000863C0E074F2120804A2AFE433FED2AFF2
:100593009061A5E0F8E5BF585404600675BFFB12EF
:1005A300143780D1C3E498F8E499F91205E880265A
:1005B300C3E49AFAE49BFBE920E7E91205E8E4982F
:1005C300F8E499F922C3E498F8E499F91205E8E408
:1005D30098F8E499F9C3E49AFAE49BFB22EB20E749
:1005E300CFE920E7E0B90010BB0008E88AF084F8FF
:1005F300AAF022E4FBC8FA22EB70227B10C833C8AE
:10060300C933C9335007C39AC3DBF280069A50013A
:100613002ADBEAC833F4C8C933F4C9FA2275F008EF
:10062300E4C833C8C933C933C99AC99B5004C92A1A
:10063300C93BD5F0ECFBC833F4C8E4C9FA22080877
:1006430008EAC0E0EBC0E086F0E7A4FA180986F0F8
:10065300E7A42AFA180986F0E7A42AFA180986F00B
:10066300E7A42AFA1986F0E7A4FBE5F02AFA1908A9
:1006730086F0E7A42BFBE5F03AFA190886F0E7A425
:100683002BFBE5F03AFA18180986F0E7A4C5F02B1E
:10069300FBE43AFA1908E7C5F0C6A426F6E5F03BF1
:1006A300FBE43AFA1886F0E7A4F6E5F00826F6E448
:1006B3003B08F6E43A08F6D0E0FBD0E0FA22E4CFB8
:1006C300C0E0E4CEC0E0E4CDC0E0E4CCC0E075F02F
:1006D30020E626F608E633F608E633F608E633F6B0
:1006E300181818EC33FCED33FDEE33FEEF33FFC384
:1006F300EC9709ED9709EE9709EF97191919400F30
:10070300FFEC97FC09ED97FD09EE97FE191906D545
:10071300F0BFECF709EDF709EEF709EFF71919192F
:10072300D0E0FCD0E0FDD0E0FED0E0FF222518C5EC
:1007330082C0E0E51934FFC583C0E0E518C39582A4
:1007430024F810AF088583198582188008858319DA
:10075300858218D2AFCEF0A3E520F0A37808E6088F
:10076300F0A3DEFAEFF0A3E58124FAF8E608F0A39C
:10077300E608F0A3E608F0A30808E608F0A3E608F5
:10078300F0A315811581D0E0FED0E0F81581158125
:100793001581E8C0E0EEC0E022120EBBB9000302EF
:1007A30007EEE490030178A579128002F0A3D8FC48
:1007B300D9FA781A9000867A01BA00028007E49386
:1007C300A3F608DAF97AA57B149000877868790292
:1007D3008015E493A3AD82AE838A828B83F0A3AAB0
:1007E30082AB838D828E83D8E9D9E77582137583B3
:1007F300E07405120BD27582B97583287400120B4D
:10080300D2C0D02518C582C0E0E51934FFC583C026
:10081300E0E518C3958224F310AF08858319858218
:10082300188008858319858218D2AFC8F0A3E9F030
:10083300A3EAF0A3EBF0A37908E709F0A3D8FAEC55
:10084300F0A3EDF0A3EEF0A3EFF0A3D0E0F0A3D07C
:10085300E0F0A3D0E0F0A3E520F0A3E5F0F0A322BD
:10086300851983851882E0C0E0A3E0F9A3E0FAA329
:10087300E0FBA37808E0F608A3DFFAE0FCA3E0FDC1
:10088300A3E0FEA3E0FFA3E0C0E0A3E0C0E0A3E099
:10089300F5D0A3E0F520A3E0A3F5F010AF0885831E
:1008A300198582188008858319858218D2AFD08272
:1008B300D083D0E0F8D0E0321E75F0108E218F2265
:1008C300858226858325851882851983E0CEA3E05A
:1008D300CF852682852583EBC9EAC8EDCBECCAC355
:1008E300E833C8E933C9EA33CAEB33CBC3EA9EF52D
:1008F30024EB9FF523B35004AB23AA24EC33CCEDB4
:1009030033CDD5F0DAAE21AF2222D083D082ECC032
:10091300E0EDC0E0E493A3FCE493A3FDED4C600D94
:100923001209E5EC24FFFCED34FFFD80EFE493A313
:10093300FCE493A3FDED4C600D120AB8EC24FFFC1C
:10094300ED34FFFD80EFD0E0FDD0E0FCE493A3C0E5
:10095300E0E493C0E022D083D082E9C0E0E493A333
:10096300C386F0C5F095F0F908E493A386F0C5F0CB
:1009730095F0700BE493A3C3994005E9048002A3A7
:10098300E475F002A42582F582E5F03583F583D082
:10099300E0F9E493A3C0E0E493C0E02285198385E2
:1009A3001882E0A3FEE0A3F5207808E0A3F608DFB1
:1009B300FAE0A3FFE0A3C0E0E0A3C0E0E0A3C0E04F
:1009C300E0A3C0E0E0A3C0E010AF088582188583F0
:1009D300198008858218858319D2AFD083D082020B
:1009E3000BD8C0E0C3E49396087401939618400FA4
:1009F300E49366700808740193661870007019A375
:100A0300A3C3E49396087401939618A3A3400DD04F
:100A1300E0D0E0D0E0020949A3A3A3A3A3A3D0E0BD
:100A230022D083D082C5F0E493A3C5F0C395F0F53B
:100A3300F0E493A3C395F04005E5F0048001E47569
:100A4300F002A42582F582E5F03583F583E493A3D0
:100A5300C0E0E493C0E0227404800474028000CCFC
:100A6300C0E0EDC0E0E518C39CCCAD1950011D10EA
:100A7300AF068C188D1980068C188D19D2AF120B06
:100A830054D0E0FDD0E0FC2274028000CCC0E0ED45
:100A9300C0E0E518C39CCCAD1950011D10AF068C06
:100AA300188D1980068C188D19D2AF120B32D0E035
:100AB300FDD0E0FC22C0E0C0F088F0E4936670084B
:100AC3000874019366187000A8F0A3A3700BD0F00C
:100AD300D0E0D0E0D0E0020949A3A3D0F0D0E022D7
:100AE300D083D082CCC0E0E493A36006120B9414AD
:100AF30070FAE493A36006120CC11470FAD0E0FC00
:100B0300E493A3C0E0E493C0E022C0E074F21208CF
:100B130004C2BB9003DCE004F06406700D7AED7B45
:100B2300891227519003DD7401F07F01020863CA23
:100B3300C0E0E493A3C582CCC582C583CDC583F051
:100B4300A3C582CCC582C583CDC583DAE5D0E0CA0F
:100B530022CAC0E0E0A3C582CCC582C583CDC583CC
:100B6300F0A3C582CCC582C583CDC583DAE6D0E0C8
:100B7300CA227009080808226016181818C6C33359
:100B8300C608C633C608C633C608C633C6D5E0EAA8
:100B930022C0E0E493A3D39C5010E493A3C39C40EE
:100BA3000AD0E0D0E0D0E0020B00A3A3A3D0E02260
:100BB300C008C3E096F50808A3E096420808A3E03E
:100BC30096420808A3E09645087001D3D00822C0D6
:100BD3009FF59FE473D09F22D083D082C09FE4937C
:100BE300C0E0740193C0E0740293F59F22C0E0C09B
:100BF300D0E8C0E0A8A8D2AFC2C7751A00E8A2E740
:100C030092AFD0E0F8D0D0D0E0327404800A7403FD
:100C13008006740280027401C0E0F404120C43D015
:100C2300E0120E7E2200C0D0251810AF08F5185030
:100C33000C05198008F51850020519D2AFD0D0223F
:100C43002518F58210AF08F518400C15198008F522
:100C53001840021519D2AF85198322BB0102E7227E
:100C6300C082C08389828A83BB0003E08002E4934D
:100C7300D083D082226016080808C6C313C618C6DC
:100C830013C618C613C618C613C6D5E0EA2225181C
:100C9300F8E43519F9222518FAE43519FB22251849
:100CA300FCE43519FD22C3E0C696F608A3E0C69618
:100CB300F608A3E0C696F608A3E0C696F622C0E0BF
:100CC300E493A36C7009D0E0D0E0D0E0020B00A362
:100CD300A3D0E022251810AF08F518400C15198091
:100CE30008F51840021519D2AF22C3E09608A3E015
:100CF3009608A3E09608A3E096A2D265D03322E03B
:100D030066701008A3E066700A08A3E06670040822
:100D1300A3E06622E76670100809E766700A08090F
:100D2300E76670040809E76622C3E096F008A3E0CB
:100D330096F008A3E096F008A3E096F022C3E697A6
:100D4300F60809E697F60809E697F60809E697F61E
:100D530022C3E49396087401939608740293960849
:100D63007403939622E056F008A3E056F008A3E03C
:100D730056F008A3E056F022E647F60809E647F6E0
:100D83000809E647F60809E647F622E026F008A335
:100D9300E036F008A3E036F008A3E036F022E026C0
:100DA300F608A3E036F608A3E036F608A3E036F625
:100DB30022E657F60809E657F60809E657F6080942
:100DC300E657F622E627F60809E637F60809E63776
:100DD300F60809E637F622E056F608A3E056F608C9
:100DE300A3E056F608A3E056F622700422600D181D
:100DF300C6C333C608C633C6D5E0F41822E4C39687
:100E0300F608E496F608E496F608E496F622C6F4A5
:100E1300C608C6F4C608C6F4C608C6F4C622C3E7A5
:100E2300960809E7960809E7960809E79622C3E0BA
:100E33009608A3E09608A3E09608A3E0962275D04F
:100E43000075813F7518017519030002079CE6F0D0
:100E530008A3E6F008A3E6F008A3E6F022600C0876
:100E6300C6C313C618C613C6D5E0F422E0F608A31A
:100E7300E0F608A3E0F608A3E0F622CAC0E0E6F035
:100E8300A308DAFAD0E0FA22E8F0A3E9F0A3EAF043
:100E9300A3EBF022E0F8A3E0F9A3E0FAA3E0FB223E
:100EA300EAF0A3EBF0A3ECF0A3EDF022E0FAA3E069
:100EB300FBA3E0FCA3E0FD22E5C754F84401F5C71A
:100EC3007901222518F582E43519F58322C2AF751D
:100ED300D69F02000022120BDB78DB05120BDB1B13
:100EE300EE05120BDB32EE05120BDB96C305120B7C
:100EF300DB12C405120BDBE6C505120BDB28C705A5
:100F0300120BDB7FC705120BDB58E602120BDB84E7
:100F1300E602120BDBC8E602120BDB49E702120BF7
:100F2300DB3EE902120BDB62E902120BDB6DE90225
:100F3300120BDB80E902120BDBC2E902120BDB1698
:100F4300EA02120BDB71EA02120BDB97EA02120BC5
:100F5300DBEBED02120BDBF7ED02120BDBFCED0218
:100F6300120BDBB2EE02120BDB15EF02120BDB3EB0
:100F7300F002120BDB9BF002120BDBF0F002120B00
:100F8300DB55F102120BDB1CF202120BDB5DF202EA
:100F9300120BDBCAF202120BDB2FF302120BDB3F45
:100FA300F502120BDB40F802120BDBE6F802120B20
:100FB300DB25F902120BDB3BF902120BDB11FA0200
:100FC300120BDB53FA02120BDBFFFB02120BDB6C7F
:100FD300FC02120BDB76FC02120BDB3AF504120B5C
:100FE300DBB2F504120BDB67F604120BDB0CF9041E
:100FF300120BDBDBF904120BDBC5FA04120BDB6308
:10100300FB04120BDB77FB04120BDBE1FB04120B7B
:10101300DBEBFB04120BDB88FC04120BDB46FD0449
:10102300120BDBD4FE04120BDBEEFE04120BDB26E9
:10103300FF04120BDB008004120BDB2B8004120B6A
:10104300DB408004120BDB738004120BDB92800401
:10105300120BDBD38004120BDB668104120BDB253E
:101063008204120BDB9C8404120BDB428504120BFB
:10107300DB6F8504120BDBC08504120BDB6C86046B
:10108300120BDBCF8604120BDB138704120BDBC0BE
:101093008704120BDB2D8804120BDB608804120B10
:1010A300DB6E8904120BDB928904120BDBF68904D5
:1010B300120BDBCE8A04120BDBD38C04120BDB7511
:1010C3008D04120BDBFF8F04120BDB839004120BD6
:1010D300DB129304120BDB6D9304120BDB77930487
:1010E300120BDBBD9304120BDBAF6D00120BDB2B7A
:1010F3006E00120BDB5E6E00120BDB8C6E00120BAC
:10110300DBCF7000120BDBEE7000120BDB337100D0
:10111300120BDBC97100120BDB157200120BDBA77C
:101123007200120BDB7F7300120BDBD07300120B08
:10113300DB357400120BDBB27400120BDBE87400B6
:10114300120BDB337500120BDB597500120BDBE955
:101153007500120BDB807600120BDBCC7600120BD2
:10116300DBFD7600120BDB347700120BDBBC78005F
:10117300120BDB867900120BDB607A00120BDBACFF
:10118300EE05120BDBBDEE05120BDBD5EE05120BE4
:10119300DB37EF05120BDBEBFF04120BDBB4EA05C5
:1011A300120BDBC4EA05120BDBD3EA05120BDB647B
:1011B300EB05120BDBBFE805120BDB42E905120B53
:1011C300DBA8E905120BDBFBFF02120BDBF8FF01C7
:1011D300120BDBFBFF01120BDBF87F00120BDB12A0
:1011E300DE05120BDB4ADE05120BDB8CDF05120B6F
:1011F300DB10E005120BDBF6FF01120BDBA87F000F
:10120300120BDB3FB505120BDB6BB505120BDBDCF9
:10121300B705120BDB1CB805120BDB5CB805120B10
:10122300DB70B805120BDB89B805120BDB7AB90545
:10123300120BDB1FBA05120BDB33BA05120BDBC330
:10124300E305120BDBE7E305120BDB00E405120BEE
:10125300DB32E405120BDB62E405120BDB8FE405E2
:10126300120BDB99E405120BDBFBE405120BDB0A23
:10127300E505120BDB14E505120BDB21E505120B6B
:10128300DB2AD405120BDB4AD405120BDB89D40508
:10129300120BDBA4D405120BDBC3D405120BDB2921
:1012A300D505120BDB32D505120BDB8FD505120BDF
:1012B300DB9ED505120BDBC2D505120BDB83D605EE
:1012C300120BDB90D605120BDBA1D605120BDB65E7
:1012D300EE05120BDB7DEE05120BDBA9EE05120BFF
:1012E300DB89BA05120BDBE3BB05120BDBF1BB0594
:1012F300120BDB04BC05120BDB19BC05120BDB2E36
:10130300BC05120BDB41BC05120BDBB5BC05120B94
:10131300DB1ABD05120BDBA2BD05120BDB1EBE05DE
:10132300120BDBE2BE05120BDBF2BE05120BDB0177
:10133300BF05120BDBC4EC05120BDBE8EC05120B4B
:10134300DB10ED05120BDB38ED05120BDB9EFD0107
:10135300120BDBC5FD01120BDBE3FD01120BDB56A8
:10136300FE01120BDB57D105120BDB70D105120BFB
:10137300DB7CD105120BDB90D105120BDBAED10563
:10138300120BDBB8D105120BDBC2D105120BDBD577
:10139300D105120BDB5BD205120BDBD0D205120B8E
:1013A300DBFFD205120BDB4DD305120BDB9CD30500
:1013B300120BDBB7D305120BDBC1D305120BDBD248
:1013C300D305120BDB15D405120BDBC4ED05120B91
:1013D300DB0FEE05120BDB008005120BDB2A800509
:1013E300120BDB478005120BDB5A8005120BDB70F7
:1013F3008005120BDBCE8005120BDB068105120B79
:10140300DBFA8405120BDB3F8605120BDB728605C4
:10141300120BDBD58605120BDB358805120BDB5D62
:101423008805120BDB728805120BDB828805120B11
:10143300DBC68805120BDB218905120BDB3189051D
:10144300120BDB84E605120BDB9EE605120BDBC6F3
:10145300E605120BDBDFE605120BDB03E705120BD8
:10146300DB21E705120BDB38E705120BDB66E7052B
:10147300120BDB81E705120BDB6AEB05120BDBAE0C
:10148300EB05120BDB82C705120BDB92C705120BB0
:10149300DB97C805120BDBC9C805120BDBF9C805BE
:1014A300120BDB1CC905120BDB33C905120BDB6DF9
:1014B300C905120BDBD2C905120BDB14CA05120BCB
:1014C300DB53CA05120BDB84CA05120BDBAFCA055B
:1014D300120BDB2BE505120BDB40E505120BDB548E
:1014E300E605120BDB57E605120BDBB4E705120B1F
:1014F300DBEAE705120BDB00E805120BDB42E8052C
:10150300120BDB59E805120BDB9DE805120BDBA779
:10151300E805120BDBA1A105120BDBDBA105120B06
:10152300DB44A205120BDB61A205120BDB03A3054F
:10153300120BDB0CA305120BDB51A305120BDB7A99
:10154300A305120BDB87A305120BDBF8A305120B14
:10155300DB83A405120BDBD1A405120BDB0FA5055E
:10156300120BDB74A505120BDB97A505120BDB0E23
:10157300A605120BDB65A605120BDBA0A605120B55
:10158300DBD5A605120BDBE7A605120BDBF9A605D7
:10159300120BDB18A705120BDB31A705120BDBF1CE
:1015A300A705120BDB3DA805120BDB7BA805120B6D
:1015B300DB5DED05120BDBCFD605120BDB0FD80578
:1015C300120BDB2FD805120BDBDCDB05120BDB1256
:1015D300DC05120BDB5ADC05120BDBB3DD05120B4A
:1015E300DB14AB04120BDB38AC04120BDB72AC0460
:1015F300120BDB1CAE04120BDB46AE04120BDBBB7F
:10160300B004120BDBFBB004120BDB91B204120B20
:10161300DB2EB304120BDB80B304120BDB23B40405
:10162300120BDB5BB404120BDB9DB404120BDB0C5B
:10163300B604120BDB5AB704120BDB8BB904120B83
:10164300DBB9B904120BDBE0B904120BDBE9B90413
:10165300120BDB40BA04120BDBD2BA04120BDBFF12
:10166300BD04120BDB82BE04120BDB1CEC05120B58
:10167300DB34EC05120BDB3EEC05120BDB92EC05C5
:10168300120BDB397B00120BDB4F7B00120BDBF001
:101693007B00120BDB2F7C00120BDB4C7C00120B4C
:1016A300DB7D7C00120BDBCA7C00120BDBFD7C00B4
:1016B300120BDB387D00120BDB337F00120BDB9B3D
:1016C3007F00120BDBFFFE03120BDB5EFF03120B2B
:1016D300DB9CFF03120BDBDDFF03120BDB109A0510
:1016E300120BDB269A05120BDBBB9A05120BDBEB05
:1016F3009B05120BDBB19C05120BDB4E9D05120BF8
:10170300DBB39D05120BDBC39D05120BDBEA9D05C5
:10171300120BDB3D9E05120BDBAE9F05120BDBB3F9
:101723009F05120BDBD39F05120BDB008002120B0C
:10173300DB0C8002120BDB758002120BDB7F800255
:10174300120BDB0C8102120BDB488102120BDB2B29
:101753008202120BDB898202120BDBD68202120B8E
:10176300DB538302120BDBA98302120BDB268402F9
:10177300120BDB058602120BDBD08702120BDBC1D7
:101783008802120BDB168B02120BDB708C02120B1E
:10179300DB078D02120BDB468E02120BDB448F023A
:1017A300120BDBA89002120BDB7B9502120BDB639F
:1017B3009602120BDBF69602120BDB1B9702120B3F
:1017C300DB409702120BDBDA9702120BDBF0970276
:1017D300120BDB129802120BDB839802120BDBA2B3
:1017E3009802120BDBCB9802120BDBCB9902120B84
:1017F300DBCF9A02120BDB639C02120BDB849C028D
:10180300120BDB2A9D02120BDB729D02120BDBD63D
:101813009D02120BDB639E02120BDBC79E02120BAF
:10182300DB319F02120BDBCF9F02120BDB3BA002CB
:10183300120BDB6EA002120BDBD6A002120BDB2F06
:10184300A202120BDBC1A302120BDB68A402120B70
:10185300DBC7A602120BDB14A702120BDB24A702C1
:10186300120BDB73A702120BDBE5A702120BDB15CE
:10187300A802120BDB83A802120BDB2EA902120BA8
:10188300DB20AB02120BDBAEAD02120BDBB4AE02FC
:10189300120BDBBAB202120BDB7FB302120BDBA11A
:1018A300B402120BDB3EB602120BDB13E601120B82
:1018B300DBA1E601120BDB4CE701120BDBCAEA01E9
:1018C300120BDB8DEB01120BDB3DEC01120BDBB8D2
:1018D300EC01120BDB3DED01120BDB4BEE01120BA6
:1018E300DB2DEF01120BDBA8EF01120BDB41F10142
:1018F300120BDB98F201120BDB71F301120BDB8489
:10190300F401120BDBB4F501120BDBCAF601120B67
:10191300DB51F701120BDB7EF801120BDB68FA01D6
:10192300120BDB0FFB01120BDB1CFC01120BDB07A1
:10193300CB05120BDBC1CB05120BDB0DCC05120B58
:10194300DB7DCD05120BDB8BCD05120BDB66CE05E4
:10195300120BDBC0FF02120BDB45C703120BDBD4F8
:10196300C703120BDB4AC803120BDB29C903120B93
:10197300DB24CA03120BDBA1CA03120BDBDFCB038D
:10198300120BDB7ACC03120BDB51CE03120BDB40C1
:10199300CF03120BDB8CCF03120BDB6ED003120BC6
:1019A300DBB1D103120BDB53D203120BDB85D5035F
:1019B300120BDB81D703120BDB0BD803120BDB6398
:1019C300D803120BDBB1D803120BDB2CD903120B98
:1019D300DBB0D903120BDBECD903120BDB6AE00398
:1019E300120BDBBBE203120BDB92E303120BDB9262
:1019F3009504120BDBC19504120BDB399604120B11
:101A0300DB3C9704120BDB989704120BDB19990448
:101A1300120BDB359904120BDB879904120BDBC421
:101A23009904120BDBD79904120BDB299A04120BCE
:101A3300DBD09A04120BDB3D9B04120BDB679B0488
:101A4300120BDB9F9B04120BDB7F9D04120BDB58F5
:101A53009E04120BDBA19F04120BDBCD9F04120B20
:101A6300DBA0A004120BDB28A104120BDB69A10489
:101A7300120BDB83A104120BDBCAA104120BDBEAFA
:101A8300A104120BDB84A204120BDB13A304120BBD
:101A9300DB6DA304120BDBBEA304120BDB3AA6041B
:101AA300120BDB61A704120BDB9DA704120BDB8F68
:101AB300A804120BDBB7A804120BDBBAA804120BA1
:101AC300DBC4A804120BDBD7A804120BDB60A90448
:101AD300120BDB96A904120BDBA9A904120BDBD5AD
:101AE300A904120BDBFCA904120BDB20AA04120BC2
:101AF300DBBDAA04120BDBCBAA04120BDBFEAA0488
:101B0300120BDB6CFF04120BDB2AE205120BDBB6B4
:101B1300FF04120BDB3AEF05120BDBA7A805120B30
:101B2300DBF6A805120BDB96AA05120BDB51AC05FD
:101B3300120BDB93AC05120BDB7CAD05120BDB86C2
:101B4300AE05120BDBA8AE05120BDBF2AE05120BD2
:101B5300DB73AF05120BDB2AA703120BDB4DA703C5
:101B6300120BDBACA803120BDB3CDB05120BDB4FC8
:101B7300A903120BDBA9A903120BDB4DAB03120B59
:101B8300DB99AB03120BDB13AC03120BDB99AC0336
:101B9300120BDB9CAC03120BDB28AD03120BDB6BCC
:101BA300AD03120BDB9EB103120BDB3BB303120B32
:101BB300DB88B303120BDBE0B603120BDB64B70362
:101BC300120BDB32B803120BDB60B903120BDBEF32
:101BD300BA03120BDB7ABB03120BDB74BC03120BCD
:101BE300DBC9BD03120BDBC0BE03120BDB12BF0349
:101BF300120BDBA1BF03120BDBE6BF03120BDB04EB
:101C0300C103120BDB66C203120BDB44C303120BCB
:101C1300DBC5C403120BDB28C603120BDB9DC60313
:101C2300120BDBCFBE04120BDB80BF04120BDBEE07
:101C3300BF04120BDB07C004120BDB8CC004120BB6
:101C4300DBE1C004120BDB25C104120BDB84C104EE
:101C5300120BDBEFC204120BDB26C404120BDB9F57
:101C6300C404120BDBA4C604120BDB4CC704120B17
:101C7300DBF6C704120BDB82C804120BDBF9C904C1
:101C8300120BDBEDCB04120BDB5CCD04120BDB7B05
:101C9300CE04120BDB1BCF04120BDB4AD004120B56
:101CA300DB87E403120BDBFBE403120BDB43E503EB
:101CB300120BDB81E503120BDBCAE503120BDB140A
:101CC300E603120BDB4CE603120BDBCAE603120B33
:101CD300DB24E703120BDB80E803120BDB11E903C0
:101CE300120BDB6FE903120BDB89E903120BDBAA8F
:101CF300E903120BDB02EA03120BDB73EC03120B97
:101D0300DB92EC03120BDB71ED03120BDB89EE03A9
:101D1300120BDB06EF03120BDB73EF03120BDBDC9F
:101D2300EF03120BDB96F003120BDB54F203120BDF
:101D3300DB55F303120BDBDAF403120BDBC5F603FB
:101D4300120BDB28F903120BDBCEFA03120BDB9C1D
:101D5300FB03120BDB02FC03120BDB19FC03120B5C
:101D6300DB09FD03120BDBF5FD03120BDB62FE0344
:101D7300120BDB76CE05120BDBC2CF05120BDB7F1A
:101D8300D005120BDBE3D005120BDBA6FC02120B12
:101D9300DBC1FC02120BDB05FD02120BDB2BFD0288
:101DA300120BDB51FD02120BDB69FD02120BDBCCC4
:101DB300FD02120BDBE1FD02120BDBF5FE02120B3F
:101DC300DB10FF02120BDB19FF02120BDB22FF02F7
:101DD300120BDB2BFF02120BDB3AFF02120BDB3A77
:101DE300BF05120BDB28C305120BDB2DC305120B3A
:101DF300DB2FC305120BDB9AE005120BDBE4EE05C8
:101E0300120BDB008003120BDB338003120BDB9A14
:101E13008003120BDB268103120BDBCB8103120B36
:101E2300DB138203120BDB388203120BDB518203B9
:101E3300120BDB778203120BDB998203120BDBD7C6
:101E43008203120BDB268303120BDB4F8303120B7C
:101E5300DBAE8303120BDB878403120BDB3D8503AD
:101E6300120BDB9B8503120BDB628603120BDBB9C0
:101E73008603120BDB248703120BDB628703120B2F
:101E8300DBB88703120BDB308803120BDB87880375
:101E9300120BDB8A8803120BDB0B8903120BDBAA01
:101EA3008903120BDB128A03120BDB018B03120B68
:101EB300DB238B03120BDB868C03120BDB938C036C
:101EC300120BDB978D03120BDBA48D03120BDBAD1F
:101ED3008D03120BDBA88F03120BDBC29003120BD3
:101EE300DB369103120BDBA39103120BDBCF9103C0
:101EF300120BDB619203120BDB9D9203120BDB804F
:101F03009403120BDB579803120BDB6B9803120B32
:101F1300DB7B9803120BDB859803120BDB8E980394
:101F2300120BDB979803120BDBA19803120BDBD088
:101F33009803120BDBF89803120BDB4D9903120B7A
:101F4300DB589903120BDB7C9903120BDBA099037B
:101F5300120BDBFD9903120BDB439A03120BDB5FBE
:101F63009A03120BDBD29A03120BDB099B03120BAE
:101F7300DB489B03120BDB959B03120BDB1B9C03C0
:101F8300120BDBF79D03120BDB939E03120BDB7823
:101F93009F03120BDBEDA103120BDB40A203120B19
:101FA300DB68A203120BDB92A303120BDBC8A303B0
:101FB300120BDB1AA403120BDBCFA403120BDB7F80
:101FC300A503120BDBB4A503120BDB4AA603120B0A
:101FD300DBCEA603120BDBEF8A01120BDB218B0195
:101FE300120BDB518B01120BDB258D01120BDB0670
:101FF3008E01120BDB5E8E01120BDBA18F01120B24
:10200300DBED8F01120BDB219301120BDB37960102
:10201300120BDB819701120BDB179801120BDB23E9
:102023009801120BDB639801120BDBED9901120B84
:10203300DBE19A01120BDB0B9B01120BDB729B01A1
:10204300120BDBCB9B01120BDB429C01120BDB89D6
:102053009E01120BDB20A001120BDBF4A001120B7B
:10206300DB33A201120BDB78A401120BDB49A701BE
:10207300120BDB58A701120BDBDCA701120BDB836E
:10208300A801120BDBC6A801120BDB0FA901120B6F
:10209300DB63A901120BDBC8A901120BDB2BAA011D
:1020A300120BDB47AA01120BDB79AA01120BDBB877
:1020B300AA01120BDB9DAB01120BDB4CAC01120B23
:1020C300DBD0AE01120BDB12B001120BDBF1B0015E
:1020D300120BDB71B101120BDB93B501120BDBD1D8
:1020E300B501120BDB2CB601120BDB5FB601120B31
:1020F300DBDBB601120BDBF7B601120BDB92B70188
:10210300120BDBE0B701120BDBB3B801120BDB7868
:10211300B901120BDB16BA01120BDB1FBD01120B47
:10212300DB33BE01120BDBD0C101120BDBD8C201C2
:10213300120BDBDBC201120BDB0AC301120BDB093F
:10214300C501120BDBE2C501120BDB29C601120B21
:10215300DB76C701120BDBB0C701120BDB5DC801D5
:10216300120BDB91C801120BDB43C901120BDB52CB
:10217300CB01120BDBBDCB01120BDB05CC01120B28
:10218300DBA2CC01120BDBD1CD01120BDB98CE010C
:10219300120BDB8ED001120BDBA2D001120BDBB6CC
:1021A300D001120BDBECD001120BDB1CD101120BA3
:1021B300DBAAD201120BDB8BD301120BDBFBD301A6
:1021C300120BDBABD401120BDBDBD401120BDBA54F
:1021D300D501120BDB62D601120BDB6BD801120B9C
:1021E300DBAAD801120BDB17D901120BDB5CDA0176
:1021F300120BDB0FDB01120BDB43DB01120BDB5B8F
:10220300DB01120BDBFEDB01120BDBECDE01120B3D
:10221300DBB7E001120BDBDBE001120BDBF9E001C2
:10222300120BDBCDE101120BDBF5E501120BDBEF4A
:102233002E00120BDB212F00120BDB203300120BBD
:10224300DB6C3300120BDBB23300120BDB5A3400AE
:10225300120BDBC43400120BDB0C3500120BDB6AF0
:102263003600120BDB6F3700120BDB613B00120BE6
:10227300DBF23B00120BDB1A3D00120BDB773D0058
:10228300120BDB463F00120BDBBD3F00120BDBC71B
:102293003F00120BDBD43F00120BDBFF3F00120B9E
:1022A300DBE64000120BDB9F4100120BDB224200F6
:1022B300120BDB404200120BDB694200120BDB9670
:1022C3004200120BDBF04400120BDBB44500120B8F
:1022D300DBF94500120BDB704600120BDB1E4700D7
:1022E300120BDB504700120BDB964700120BDBD2BD
:1022F3004700120BDB234800120BDB774800120B5D
:10230300DB024900120BDB4D4900120BDBB2490023
:10231300120BDB2B4A00120BDBEA4B00120BDBF92F
:102323004C00120BDB184E00120BDB745100120B26
:10233300DBA35400120BDB5C5500120BDBA455002E
:10234300120BDB435700120BDB575700120BDB61F9
:102353005700120BDB6B5700120BDB775700120B86
:10236300DB965700120BDB4C5800120BDBA5580011
:10237300120BDBAF5800120BDBB95800120BDB2931
:102383005900120BDB705900120BDB755A00120B4C
:10239300DBC45A00120BDB675B00120BDB405C00F3
:1023A300120BDB605D00120BDBA25E00120BDB9CE9
:1023B3005F00120BDBB45F00120BDBE85F00120B54
:1023C300DBF25F00120BDB106000120BDB6F6000AF
:1023D300120BDB966000120BDB316100120BDBF09A
:1023E3006100120BDB606200120BDBD86200120B80
:1023F300DBE26300120BDBAF6400120BDB0765004B
:10240300120BDB0B6600120BDB506600120BDBAB0F
:102413006600120BDB126700120BDB406700120B26
:10242300DB646700120BDB996700120BDBC66700E6
:10243300120BDB0C6800120BDB306800120BDB990C
:102443006800120BDB816900120BDBCC6900120BF5
:10245300DBF56900120BDB8D6A00120BDB056B00E9
:10246300120BDB296B00120BDB866B00120BDBA656
:102473006B00120BDBA96B00120BDBD56B00120B8D
:10248300DBCA6C00120BDBB7DE04120BDBEFDE04DE
:10249300120BDB10DF04120BDB54DF04120BDBB86F
:1024A300DF04120BDBC2DF04120BDBD2DF04120BDF
:1024B300DB09E004120BDB01E404120BDB0FE6047F
:1024C300120BDBFCE704120BDB93E804120BDB3586
:1024D300E904120BDB6FB902120BDBDFB902120B3B
:1024E300DB3FBA02120BDB8ABA02120BDBA5BA027C
:1024F300120BDBCCBA02120BDBE9BA02120BDBF5CF
:10250300BA02120BDBA0BC02120BDBB9BC02120B2A
:10251300DB42BD02120BDB55BD02120BDB74BD02A5
:10252300120BDB0FBE02120BDB7FBF02120BDB268B
:10253300C102120BDBB5C102120BDBB8C102120BD5
:10254300DB28C202120BDB46C202120BDBEBC20218
:10255300120BDB27C302120BDB2AC302120BDBF0C5
:10256300C302120BDB53C402120BDB8CC402120B2B
:10257300DB01C502120BDB1FC502120BDB6DC502AB
:10258300120BDB42C602120BDB90C602120BDBD826
:10259300C602120BDB65C702120BDB9AC702120BD2
:1025A300DBCFC702120BDBDDC702120BDB3CC80219
:1025B300120BDBB4C802120BDBF5C802120BDB45AE
:1025C300C902120BDB70C902120BDB8AC902120BA0
:1025D300DBA4C902120BDB7FCA02120BDB89CA021E
:1025E300120BDBC4CA02120BDBD4CA02120BDBDDF3
:1025F300CA02120BDB35CB02120BDB49CB02120BE7
:10260300DB7FCC02120BDB92CC02120BDBA9CC02D8
:10261300120BDBBECC02120BDB4CCD02120BDBB474
:10262300CD02120BDB67CE02120BDB72CE02120B52
:10263300DBBFCF02120BDBDBCF02120BDB27D00297
:10264300120BDB96D002120BDBCFD002120BDBE9AD
:10265300D002120BDB2BD102120BDBEDD302120BD8
:10266300DBA3D402120BDB33D502120BDB7BD702C5
:10267300120BDB93D702120BDB96D702120BDBA2F2
:10268300D702120BDBB6D702120BDBBED702120B3B
:10269300DBF1D702120BDBE4D802120BDB6FD9029A
:1026A300120BDB02DA02120BDB7BDA02120BDB3FCB
:1026B300DB02120BDB61DB02120BDBFADB02120B18
:1026C300DB57DC02120BDB5ADC02120BDB87DC026A
:1026D300120BDB9CDC02120BDB16DD02120BDB623E
:1026E300DE02120BDB6DDF02120BDBF8DF02120BD3
:1026F300DBFDE002120BDBBDE102120BDBEEE102BC
:10270300120BDB14E202120BDB1DE202120BDB4B9A
:10271300E202120BDBE3E202120BDB98E302120B81
:10272300DB09E402120BDBB0E402120BDB37E50238
:10273300120BDB76E502120BDBB9E502120BDBF3BE
:10274300E502120BDB0DE205120BDBF9B405120BEC
:10275300DBCAB405120BDB3BB205120BDBDCB005A5
:10276300120BDBFAAF05120BDBB3AF05120BDBFC6D
:102773008F05120BDB138C05120BDBC98A05120BB9
:10278300DB218A05120BDB9C8905120BDB8B890588
:10279300120BDB618905120BDBFF9805120BDBD0F3
:1027A3009805120BDB429705120BDBB69505120B4E
:1027B300DB989405120BDB1B9405120BDB5D930571
:1027C300120BDBB29205120BDB349205120BDBE129
:1027D3009105120BDBC9DA05120BDB65D905120B68
:1027E300DB27EF05120BDB10EF05120BDBF2E9051C
:1027F300120BDBDEE905120BDBC1E905120BDBBEB5
:102803009105120BDBD2DC04120BDBB0DB04120BE1
:10281300DB87E205120BDBBDD904120BDB0FD804F7
:10282300120BDB45D704120BDB35D604120BDB4D41
:10283300E205120BDB09D604120BDBF5A803120B1E
:10284300DB9DD504120BDB16D204120BDB89D104FA
:10285300120BDBEFF404120BDB96F404120BDB58C0
:10286300F404120BDB2BF404120BDBF7F304120B4F
:10287300DB96F304120BDB7EF304120BDB5AF30437
:10288300120BDBE1EF04120BDBB4ED04120BDBBB29
:10289300EB04120BDB41EB04120BDB39E205120BE9
:1028A300DBF0EA04120BDBAAEA04120BDB0EEA04E8
:1028B300120BDB78FF0400000080FBE4738F000140
:1028C30000F01587000100EE1535000400B815254A
:1028D300000200BC1526000200BE1527000200C03E
:1028E3001528000100CA1529000100CB1584000436
:1028F300008D1286000100F7142A000100CC152B6D
:10290300000100CD152C000100D1152D0008009900
:10291300122E000100D2152F000100D31530000143
:1029230000D41531000100D51532000100A1123386
:10293300000100A21234000100D61536000100A3E5
:102943001238000100D71539000100D015830002A9
:1029530000EC1563000100AF1264000100CE1565A1
:10296300000100CF156D000100B012710008009145
:102973001266000100EB1543000100DC1544000260
:1029830000DD1545000100DF1546000200E0154794
:10299300000800A71248000100E2154B000100E304
:1029A3001504000100EF15A1000100F31537000124
:1029B30000F21588000100F1153C000100A4123D4E
:1029C300000100D81549000200E41567000100B1B9
:1029D300124D000200E6154E000100E8154F0002FB
:1029E30000E9153E000100DB1551000100A512525C
:1029F300000100D91553000100DA1554000100A6A7
:102A0300120000000000000001363601010001023F
:102A1300010001030100010401060605020000078D
:102A23000100340801000F090401010D0100FF0E2C
:102A330008000017020000190100FF1A0100011B22
:102A43000100FE1C0100081D0200001F01000120FF
:102A5300010001210200002301000F2402000026CF
:102A630001000127010008280200FF2A0100072BAB
:102A73000102402C0100002D0100012E0100012F55
:102A83000100FF30010B1D310800003A0100083B33
:102A930001000F3C0100013D0100FF3E0400004224
:102AA300040000460400004A0400004E04000052E3
:102AB300040000560400005A040000000000002037
:102AC30001EC8A000001002001EE8A0000020020D0
:102AD30001EA8A000003004201C7880000040042A3
:102AE30001E588000005004201CD87000006004291
:102AF300011489000007003001EB8A000000404206
:102B0300013A870000FDFF2141E08A030000002114
:102B13000346110300FDFF2141E08A01010000305B
:102B230005481101010100300149110101020010A2
:102B33000194150101320010014A11010133001003
:102B43000195150101410019014B110101420019C1
:102B5300014D110101430019014F110101440019F5
:102B63000151110101FDFF2141E08A0103710301BC
:102B73000301030103010301032203020301031001
:102B830003000300030003000300030003000342E8
:102B930003000324030603000300030403120325B5
:102BA3000323032503230304030403000300030097
:102BB30003440300030003230300036503210035DB
:102BC300038103000305030003000300030003253F
:102BD3000323030302710230016002110270020138
:102BE30002020202028002100261023A0041006303
:102BF30002730272026202430200021302380000EF
:102C03000200020402120200020002000200020497
:102C1300020402370037003C02440200023900007C
:102C230002000265020002350281020002050282EF
:102C3300028302000201017101010101011101017D
:102C4300013101010101018001100161013B001407
:102C53000063017301720162014301000113010664
:102C6300013D0135000401120100010001000100D2
:102C73000104010401330133013C014401320136F3
:102C8300000001000165010001350081010001051B
:102C93000182018301000103007100300160001112
:102CA3000070003102200350048000100061000016
:102CB30000140063007300720062004300000013FD
:102CC30000060000000000040012000000000000E5
:102CD30000000004000400370037003C02440000F9
:102CE30000000000000000650000003500810000C6
:102CF300000500000083000000360001000600000C
:102D0300000F0000000000000000000000000003AE
:102D1300FFFF00000403FFFF0000FFFF0FF40100AB
:102D230005C4040320000100000B000000000000A4
:102D3300000003010F00000000000000000000007D
:102D43000000000000000000000000000000000080
:102D53000000000000000033187B18391849173FA2
:102D63001881183F188D18451849173F1881184BBB
:102D7300184917000000005118491700000000000F
:102D8300000000571849175D189318631849170076
:102D930000000000000000000000006918A5186F83
:102DA3001849176918A5186F1849175D18931875EE
:102DB30018491700004D1C01004D1C02007B1B022B
:102DC30080751B0300811B0400871B04808D1B057A
:102DD30000931B06009F1B3000B71B30802928314E
:102DE30000B11B3300C31B3400C91BFFFF000007E6
:102DF300ECFDFDFDECDCDCCCBCACAC9C9C8C7C7CAD
:102E03006C6C5C5C5C4C4C3C3C2C2C1C1C03EAF551
:102E1300E5D5D5C5B5A5959585857575656555556F
:102E23004545353525251515050AA72202712205C5
:102E33007D220777220C59220D6522FF0000001620
:102E43000F00000B150B020002220F3300000E0FC0
:102E5300D0D1D2D3D4D5D6D7D8D9DADBDCDDDEDFF7
:102E63005A6967426565416C6C69616E63653039A7
:102E730000000004030000040300010430301718AD
:102E83001921301B1D1F3000034D4C4651181A25C4
:102E93000502000119161816161823030030301600
:102EA300181920231A1C1E30003C40423A3F3F3978
:102EB3002F47300C0E020B040B0A0708000F020405
:102EC3000201010101090200BE040AE80300000136
:102ED300000300E8030E0004030916030A1E030A95
:102EE3000C0404080F020C05081504FF74F71207FD
:102EF30030E9901386F090133BE4F01214D390134F
:102F03009EE4F0A3F0901387F0A3F01224031214AD
:102F1300D99012BFE4F0A3F0121DC10248D274F09D
:102F230012073074D3120CD7851882851983126562
:102F33007254806068901386E0F912154B8A088BEF
:102F430009AE08AF09EE4F604C7C0080010CEC75B4
:102F5300F003A4F8A9F0742C28F582742E39F583B4
:102F6300E493F46029E493F88E828F83E06870DD44
:102F7300EC75F003A4F8742D28F582742E39F583CB
:102F8300E493C0E0740193F583D0821228BEEEFA75
:102F9300EFFB121539126B726480023306851882B7
:102FA300851983A3E05420602112230D8A088B091D
:102FB300AE08AF09EE4F600A122265EEFAEFFB127C
:102FC3001539126B726420023306851882851983C2
:102FD300E0A2E05025901340E0640F7011790012D5
:102FE300223BE960099015B8120EAF1222538518DF
:102FF30082851983E064010232E5542070030232B2
:10300300EA7A207B00901386E0F91216ADEA4B4C66
:103013004D701A90139A120E97E8494A4B700E7529
:103023000801750900750A00750B00806A750C00AC
:10303300750D00750E00750F001216BF8A088B09F7
:103043008C0A8D0B90139A120E97E8494A4B603104
:1030530090139A7808120BB3400E750CFF750DFF91
:10306300750EFF750F7F801985080C85090D8C0E71
:103073008D0F90139A780C120CA97401780C120C12
:1030830078850C08850D09850E0A850F0BE5081256
:10309300350570030232257C0079047A007B001227
:1030A30022E38A0C8B0DAE0CAF0D02316674021253
:1030B3000EC674FFF07403120EC674FFF07404128C
:1030C3000EC674FF1268927407120CA1125F83126A
:1030D300606512232BE96401706B1250FC4480F885
:1030E300A3E0F97428120EC6E8F0A3E91267C1E061
:1030F300C0E0742A120EC6D0E0124A0E54086016BD
:103103007428120EC6A3E04401123319C0E0742CD4
:10311300120EC6D0E0F01263BE60121248B1126400
:1031230076E0F87416120EC6E8F0A3E4F0908ABABB
:10313300120A5A7406120CA1740B120C99121EFF78
:103143007404120C288E828F83A3A3A3A3A3A3A327
:10315300A3A37406123319F91222C57405120EC6FD
:1031630012648AEE4F70030232257C007904EEFA72
:10317300EFFB1222E37405120EC6EAF0A3EB12571B
:103183002AE0F50CA3E0F50DE4F50EF50F780879C8
:103193000C120E214023EE2404F8E43FF985080CB9
:1031A30085090D88828983C3E0950CF0A3E0950D12
:1031B300126CA7E84970A4800C8E828F83A3A3A30B
:1031C300A3E4F0A3F08E828F83A3A3A3A3A3A3A35B
:1031D300A3A3A3E064018E828F83A3A3A3A3A3A3CA
:1031E3007023E0540460030230B08E828F83A3A364
:1031F300A3A3A3A3A3A3A37406F07AB7123448121C
:10320300224D02315EA3A3A3A3E060030230B08E7C
:10321300828F83A3A3A3A3A3A3A3A3A37401F002F5
:10322300315E1222B37C0079017A007B001222E323
:103233008B0DEA450D600C7A207B00901386E0F934
:103243001215757C0079047A007B001222E3EA4BA5
:103253007013804D8A828B83A3A3A3A31265C0EE50
:1032630098EF99400B8A828B83A3A3A3A312648A4A
:103273007C0079041222E38B0BA90BEA4970D5C3B6
:10328300E5089EE5099F500DC3EE9508FEEF9509ED
:10329300FFEE4F70167A207B00901386E0F912152B
:1032A3007590139A123312A3F0802EEE2EFEEF3395
:1032B300FF8E088F09E4F50AF50B7808120C0D7AD6
:1032C300207B00901386E0F912169B7404120C28DD
:1032D3001216BF90139A120EA3851882851983E0E4
:1032E3006420FAA3E0801CA3E054046019125C2359
:1032F300120F397901901339126065121F11126B85
:10330300726404FB80047A007B00742D026393E4EF
:10331300F0A3F0A3F022124A13A3A3E022C082C0B9
:103323008374EA120CD77C167D007900AA18AB19B6
:103333001215217408120EC67402F090132F125E38
:10334300831233607409120EC6125E9C7413120E3C
:10335300C6E4125B61121DAF7416024CD7E8F0A3EA
:10336300E9F09013391263DC2274F712073074DA30
:10337300120CD7EAFEEBFFEE4F602DAC18AD19121D
:10338300232B7406120EC6E0601E7417120EC6E0DD
:10339300FD7401120EC6E0FCEEFAEFFB7900122277
:1033A30011E9600479A48002790074260248CF747D
:1033B300F7120730EAFEEBFF8E828F83A3A3A3A34A
:1033C300A3A3E0544060171263A01260651223C7E1
:1033D300E960067AFF7BFF80151263A080039013D8
:1033E3002F12606574FE6A700374FF6B604712638B
:1033F300A01265721223C7E98E828F83600E126C4E
:1034030036124CE438F583E4F0A38003126C5BF0CE
:103413007C417D228E828F83126065121DB5E9F592
:10342300087015EE4F60097901EEFAEFFB1222BF27
:10343300A9080248D27508CDAA0812344812224DB1
:10344300E960E080EB8E828F83126C3A240CF58264
:10345300E438F583E0F92274F6120730E9FEEAFF57
:103463007A0F7B00121533EA4B601F8A828B8374B9
:103473000CF0EEA3A3F0EF8A828B831246679013BE
:1034830086E0F912153F79008034EEF91222E98AB9
:10349300088B09A808A909E849602188828983A3C0
:1034A300A3A3A3A3A3A3A3A374061265D3A3A3A354
:1034B300A3A3E0F9121FA7EEF91222C5791002594E
:1034C3002474F41207308A088B098C0A8D0B90132D
:1034D30040E0640F7028123504602390133BE064CE
:1034E300086005E0640470167808120C0D7A017BFD
:1034F30000901386E0F912169B7404120C2802370D
:103503006AEA4509450A450B2274F412073074FC34
:10351300120CD7EAFEEBFF8E828F83A3A3E0F9128E
:1035230022E98A088B09EA4509700302364B8E8229
:103533008F83A3A882A983E0C0E0EA125B13D0E0E3
:103543001244D264F160288E828F83A3E064CD603D
:103553001E8E828F83A3E0641A60148E828F83A3EE
:10356300E064E9600A8E828F83A3E064E1703079BE
:10357300001222BFE96028E5082404F50AE43509AE
:10358300F50B85088285098312365C1244B81260F4
:10359300651214E5850A82850B8312657280788E25
:1035A300828F83A3E0C0E07402120EC6D0E0124CF7
:1035B300EA126C95EE240B124BD6C0E07403120E84
:1035C300C6D0E0F0E508126884123BD6E0AA18AB37
:1035D300197005121EF980031223A97402120EC674
:1035E300E064E97032850882850983123D6F750AAC
:1035F30001780A120C19750AE9780A120C19124497
:103603009C1248DFA3A3A3A3A31248D71260651299
:1036130023617402120C28850882850983A3A3A35E
:10362300A3A3A3A3A3A3E064027012850882850960
:1036330083A3A3A3A3A3A3A3A3A37406F08E828F40
:1036430083A3A3E0F91222C51222B39015BE123B45
:103653003A1222537404023767A3A3A3A3A3A312AA
:103663005F708E828F832274F4120730EAFEEBFFC1
:103673007508008E828F83A3A3A3A3A3E0603B7589
:10368300080812605879FF12207F8B0BEA450B6004
:103693001075082C8E828F83A3A3A3A3A3E0D2E08B
:1036A300F08E828F83A3A3A3A3A3E05403640160DA
:1036B30003023761430811023761EE2418124BD617
:1036C3006036EE241A124BD66003F470121265783A
:1036D3007003A3E0696003023761750822807FEEFF
:1036E300241B125F66EE241A124BD6FAEE2419122B
:1036F3004BD6F9121F9580661260581223C7E964EE
:103703000270037508011265787003A3E0697006FF
:10371300E508D2E1F508E50860158E828F83A3A33F
:10372300E07006E508D2E58004E508D2E6F5081264
:1037330060581223C7E964017006E508D2E0F50872
:103743008E828F83A3A3E06015EE241D125416F915
:103753001223AFE964016006E508C2E0F508A90891
:1037630080057409120C287F0402099F74F0120764
:103773003074D7120CD7EAFEEBFF8E828F83A3A39C
:10378300A3A3E060119015BC1263C760099015BC38
:10379300123B3A1222537403120CA18E828F83A31D
:1037A300A3A3125D3512606312232BE97003023960
:1037B3000578017405120EC6E0C394024002780036
:1037C3007407120EC6E0C3940240027800740C1210
:1037D3000EC6E064F87003A3E0F4700302390574C5
:1037E3000C120EC6E064F97003A3E0F4700302390F
:1037F30005740C120EC6E064FA7003A3E0F47003C0
:10380300023905740C120EC6E064FB7003A3E0F4E6
:1038130070030239057406120EC6E0F9901329E00D
:10382300696003023905E8A2E04003023905742701
:10383300120EC6E06003023905EE24131263D2743C
:1038430022120EC6125D3F241C1263D27410120E94
:10385300C6125E9C7409120EC6E0601D741A120E25
:10386300C6E0FD7404120EC6E0FC8E828F831260E4
:10387300637901122211E9703D7403120C9912222B
:103883005FE9F50C7409120EC6E0702E901323E065
:1038930060287422550C642260207442550C6442E3
:1038A30070147420120EC6123B46600E7420120E62
:1038B300C6123B3360047ACF804AE9A2E6504D74C6
:1038C30020120EC612541C24FD600F14600C24FD3C
:1038D300600824FD600424FE70287420120EC612B2
:1038E3003B2C700E7420120EC6125A70A3E0640DA6
:1038F300601A7403120C991223DFE96401700D023C
:103903003B277AD37B00121B15023B27EE242DF5B0
:1039130082E43FF583123D667003A3E0697022756C
:1039230008007808120C197808120C19EE242F12CB
:103933004BD6F9123B4C1260651223617402120CD0
:10394300287409120EC6E070030239E9123B4C12C7
:1039530060651224338A0E8B0FEA450F7003023A17
:10396300807404120EC6E0F88E828F83A3A3E0282E
:10397300F8A3E03400F9E8124CE439F583E0F88A5F
:10398300828B83A3A3A3E068600EE88A828B83A360
:10399300A3A31246601233137904E9120EC612511F
:1039A3001DA3E02AF8A3E034008882F583A3AA824A
:1039B300AB831215278A088B098C0A8D0B850E821F
:1039C300850F83A3A3A3A37808120BB34003023B81
:1039D300279089F67808120DA1850E82850F831230
:1039E3006C91A3124E1090133BE064046008E064F2
:1039F300096003023B27E50CA2E54003023ABAEE55
:103A0300242F1250EDF0EE2430124BD6C0E0740197
:103A1300120EC6D0E0F0EE2431124BD6C0E0740291
:103A2300120EC6D0E0F07414120EC6E06401702CBE
:103A3300740E120EC61244C92413124BD6687003B7
:103A4300A3E0697017740C120EC61260651223C7C7
:103A5300E9640270077414120EC6E4F0EE2425F52F
:103A630082E43FF583120A5A7404120CA1740712FC
:103A73000C99121EFF7404120C28023B279013802A
:103A8300E0640160030239E97420120EC6123B465A
:103A93007009E50CA2E650030239E97410120EC650
:103AA300E0F47003A3E0F4607BEEFCEFFD7403121B
:103AB3000C9912226B806DA2E650697420120EC617
:103AC300125F7D7016741A120EC6E064027055748C
:103AD30003120C9979001223A380497420120EC695
:103AE300123B337014741A120EC6E06404703574FA
:103AF30003120C99122397802B7420120EC6123BCB
:103B03002C700C79007403120C991223EB8015743A
:103B130020120EC6125A70E0640C70087403120C63
:103B2300991223F774290263931263AAE0640322B0
:103B33001263AAE0640722E0F508A3E0AA08FBE405
:103B4300FCFD22125420640622EE242BF582E43F6E
:103B5300123B5A124BCF22F583125F70EE2274F49C
:103B6300120730EAFEEBFF8C088D099012A1E0608A
:103B73000F1265787003A3E0697005121F838049F3
:103B83007900126058121FB38A828B83E5824583C2
:103B9300602FA3A3A3A3A3A3E054186024E50824E0
:103BA3001C123BD3120A5E123BCF120A5EEE24189C
:103BB300124BD6F9123BDB121FC57404120C28807A
:103BC300087900123BDB121F8902376AE5082413C8
:103BD300F582E43509F583228E828F83A3A3A3A301
:103BE300A3A3A3A3A3123B5C125E7A12606922749F
:103BF300F712073074F7120CD7EAFEEBFF90133B72
:103C0300E06403600DE064016008E064096003029E
:103C13003D0D8E828F83A3E06003023CD07C007D48
:103C2300007A027B001214DF123D128A828B831208
:103C330063D890132C125E9C7953121D9D90133BF5
:103C4300E06409600990133912606512242D851808
:103C5300828519837401125B617942121D9D901351
:103C63003B7404F07401120C99794A121D97740184
:103C7300120CA17A317B131216D7901190E0640BCA
:103C830070057406F0800B79009013391260651289
:103C93001F1190132C125F6C7A037B001214DF90B8
:103CA300132F125F6C7A047B001214DF901326E04B
:103CB300A2E35004D2F08002C2F0125B5779521291
:103CC3001D9D9015B8120EAF122253803AFC7D0051
:103CD3007A037B101214DF901190E0640B7003746D
:103CE3000AF09012A5E4F0FA7B40901386E0F912F3
:103CF30016A78E828F83A3E0F990133912606512A1
:103D03001F1190133BE4F012229574090248CFEE81
:103D13002402FAE43FFB22C082C0839012BF1263E5
:103D2300C7701790133BE024FB6005146007800AFB
:103D33009012C580209012C7801BE849600890123A
:103D4300C0123F3E700C8A828B83A3E0F9121F05D9
:103D5300800E9013B51263C76006125A711228BE03
:103D630002559D1263DC901339E068221263DCE88C
:103D7300FAE9FB2274F512073074D8120CD78A08BB
:103D83008B098A828B83A3A3A3A3A3A3A3A3E0C3C7
:103D9300940F5003023F398A828B83A3A3A3126437
:103DA3008A7415120CA18A828B83A3A3A3A3A3A352
:103DB300A3A3E0F98A828B8312605C1222A174159B
:103DC300120EC6E0702E850882850983A3A3A3A3E0
:103DD300A3A3A3A3E0C3940B401A8E828F83A3A350
:103DE300A3A3A3A3A3A3E064027009EE240B124BC5
:103DF300D6F46003023F397417120EC6E0600764FD
:103E0300026003023F3990133BE06402601AE064EE
:103E13000660159012BF1263C77003023F39123F49
:103E23003E6003023F3980329012BF1263C7702A8B
:103E33007508007808120C197808120C19EE241072
:103E4300F582E43FF583125D36A3A3A312365C1219
:103E530060651223617402120C288E828F83125EB6
:103E630083E8F0A3E91244DB1263D87402120EC68E
:103E7300125D3F1250FDC0E07404120EC6D0E0F094
:103E8300EE240B1265C5740F7808120E60740512C8
:103E93000EC6E508F07419120EC6E0C0E0740612EF
:103EA3000EC6D0E0F0741B120EC6E0C0E074071219
:103EB3000EC6D0E0F07416120EC6E0C0E07409120C
:103EC3000EC6D0E0F07417120EC6E0C0E0740812FC
:103ED3000EC6D0E0F0EE2410124BD6C0E0740A12E6
:103EE3000EC6D0E0F0741A120EC6E0C0E0740B12D6
:103EF3000EC6D0E0F07427120EC6E0C0E0740C12B8
:103F03000EC6D0E0F0741C120EC6A982AA838908DB
:103F13008A09750A007808120C117C087D00741058
:103F2300120EC6AA82AB831215157403120C28AAAB
:103F330018AB19121F0B7428024A23E0C8125F5CE6
:103F430064012274F212073074F8120CD78A0A8BB8
:103F53000B8C0C8D0D890890892FAC18AD19740842
:103F6300120B54C200AC0AAD0BAA18AB191216D12E
:103F7300E97002D2009013878014AC0AAD0BEE24D3
:103F83000BFAE43FFB1216D1E9701B124BBC12482B
:103F93001B601EA20040E38E828F83E0650C7004D9
:103FA300A3E0650D70E58E828F83A3A3E06508709F
:103FB300DAEEFAEFFB74080244E8C082C083901380
:103FC3008702559AC082C083901387E4F0A302420C
:103FD3003774F7120730901387126B78800FEA2437
:103FE30014F582E41264871215DBEEFAEFFBEA4B59
:103FF30070EC901387E4F0A3F00248D274F2120736
:10400300308A0C8B0DECFEEDFF890B8A828B8312B9
:104013005B1EF0A3A882A9838A828B831240C812F5
:10402300465BA3E0C454F0FA88828983E04A1251C4
:1040330041850C828B83A3A31240C81240DBE0337B
:104043003354FC1240CFE033333354F81240CFA340
:10405300E0A2E0E4331313FA88828983E04AF0EEA6
:104063002403FE50010FE50C2407F508E4350DF594
:1040730009750A007808120C117C087D00EEFAEF2E
:10408300FB1215157403120C28EE2408FE50010FC1
:10409300E50C240FF508E4350DF5097808120C1129
:1040A3007C037D00EEFAEFFB1215157403120C2846
:1040B300E50BC3940F400BE50C124CDE350D125685
:1040C300E9F00244EBA3E08882898322FA8882899B
:1040D30083E04A1240DBA322F0850C828B83A3A3E7
:1040E300A3A32274F2120730EAFEEBFF8C0C8D0DB2
:1040F3008E828F83E08C828D8312571FA882A983BF
:10410300E0540F8C828D831244D1C4125540125156
:10411300371255481244CFA2E2E4338C828D8312C6
:1041230044CE131313541F1255401244CEA2E7E496
:10413300338C828D83A3A3A3A3A3A3F0EE2403FE56
:1041430050010F8E088F09750A007808120C117C34
:10415300087D00E50C2407FAE4350DFB12151574F0
:1041630003120C28EE2408FE50010F8E088F0978E5
:1041730008120C117C037D00E50C240FFAE4350DC5
:10418300FB1215157403120C288E828F83A3A3A32D
:10419300E0C0E0126CAFD0E0F00244EB74F612071B
:1041A30030EAFEEBFF8E828F83A385820885830925
:1041B300E0F9121F29850882850983E064EB601EFC
:1041C3008E828F83A3E064E160148E828F83A3E0E9
:1041D30064F1600A8E828F83A3E0641A70078E8273
:1041E3008F83A3E4F09015B8120EAF122253750813
:1041F300017808120C198E828F83A3E0F5087808E2
:10420300120C197900901339125F6C90132F1260FE
:10421300651223617402120C281222B3025924C0BE
:1042230082C083E99013997003E4800274018004CF
:10423300EAF0A3EBF002559DE0F902559D74F612E6
:104243000730901399E0701B7C0079017A007B00A2
:104253001222E3EA4B600C8A828B831263C76003EA
:10426300122247025924C082C08379041222DDE955
:10427300F8902EEAE493C398401079FF1222DDE907
:10428300F8902EE9E493C3985004790180027900F1
:1042930002559D74F21207308A0A8B0B8909C200FA
:1042A3008A828B83A3A3A3A3A3A3A3A3E0F91222CC
:1042B300E98A0C8B0DAE0CAF0D750801EE4F600350
:1042C30002437F850A82850B83A3A3A3A3A3A3121F
:1042D3005F6C850A82850B83A3A3A3A3A3A3A31265
:1042E30044B81260651222D18A0C8B0DAE0CAF0D4F
:1042F300EE4F70030244958E828F83A3A3A3A3E49E
:10430300F0A3F0E50A240CFAE4350BFB8A828B83D5
:10431300E0C0E012449CD0E0F0E50A240D1244C250
:10432300240D125E961223CDEE240F12656CE50A5E
:1043330024111244C22411125E96E50A2413126555
:10434300B7C0E0124BCAD0E0F0D200EE2406125000
:10435300E41244AF1244D2540460030243ED9015B7
:10436300CAE0F50A750B007407780A120DED8E8208
:104373008F83A3A3A3A3A3A31244A6F08E828F8348
:10438300A3A3A3A3A3A3E0F50AA3E0F50B74077803
:104393000A120E60E50A5407FCE509605C8E828F01
:1043A30083A3A3A3A3A3A3A3A3A3740212572412B7
:1043B300478F600B90132712516AA3A3125E9CECE4
:1043C3007003024460EE2406126C181244AFF0EC42
:1043D30024FFF50AE434FFF50B7407780A120DED98
:1043E3008A828B831244A6F080738E828F83A3A369
:1043F300A3A3A3A3E044808082EC7005750800802A
:104403005C8E828F83A3A3A3A3A3A3E05420600C99
:1044130012152DEA547F7900245F80198E828F83D1
:10442300A3A3A3A3A3A3E05410601A12152DEA5467
:104433000F7900240A5001098E828F83A3A3A3A3BB
:10444300F0A3E9800D8E828F83A3A3A3A37401F04D
:10445300A3E41244DB7404124713121575A200502F
:10446300348E828F8312365EA3A3A3A3A3A3A3A335
:10447300A3E0F9EEFAEFFB1222D7E960181263BE4C
:1044830060091248B11260651215DBEEFAEFFB12F8
:1044930015DB750800A908804FEE240CF582E43F74
:1044A300F58322E0450AF0A3E0450B22E0547FF0B8
:1044B300A3E054FC22A3E0F9850A82850B8322F54D
:1044C30082E4350BF5831263DCEE22A3A3A3A312CC
:1044D30044D6221265DEE0221244DF22124A17A3D9
:1044E300A3A3227403120C287F0602099F74F412FB
:1044F300073074F7120CD77E001222E9EA4B7003DF
:104503000245AF8A828B83A3A3A3A3A3A3A3A3A3DD
:10451300E0640660030245AF8A828B83A3A3A3A34F
:10452300A3A3A3E0FF8A828B83126C40E0C0E074F4
:1045330008120EC6D0E01248F5125E88125E9C1275
:1045430022FBEF54086063851882851983125F6C20
:104553007A007B001222CB8B0BEA450B704C126C5A
:10456300BB121DCD7C007D007A007B0080288E82EB
:104573008F8312541CF47003A3E0F4602D9013395D
:10458300123662126065121DC7E9641A601C7C0052
:104593007D00EEFAEFFB1222CB8A0A8B0BAE0AAF39
:1045A3000BEE4F70C97900121DD37E01EEF902376D
:1045B30065C082C0838A828B83E5824583700990BC
:1045C300139E80068A828B83A3A31247C360208A2B
:1045D300828B83A3A3A3A3A3A3A3E0540860E5EC66
:1045E3004D60101247C97003A3E06D70D780047A41
:1045F300007B0002559D74F21207308A088B0989EB
:104603000AECFEEDFF7A147B001215D5EA4B603BF2
:104613008A828B83A3A3A3A3A3A3A3A3A3E4124884
:10462300EAA3E50A126599A3A3A3EEF0A3EF12464A
:10463300601248FC1246678A828B83126C95EA24C7
:104643000F12465112465AA3F0A3F00244EBF5822F
:10465300E43BF583E4F022A3126C78A3221265A94C
:10466300E4F0A322A3F01264801246542274F512DC
:104673000730EAFEEBFF890A8C088D09EE4F7003C1
:1046830002470E7401650A701279011222DDE9F8FE
:10469300902EEBE493C398502280167404650A703D
:1046A3001479041222DDE9F8902EEAE493C39850BA
:1046B3000A791180587402650A70508E828F83A321
:1046C300A3A3A3A3A3A3A3A3E50A125724126C9144
:1046D3008E828F83A3A3E4F0A3F090139E1263C78B
:1046E300601880031263D888828983A3A31247C307
:1046F30088828983A3A370EC800390139EEEF0A3BA
:10470300EF1247131215757900800279C1024A2608
:10471300F07A207B00901386E0F922C082C083E9FF
:10472300F8790090139E801D8A828B83A3A3A3A391
:10473300A3A3A3A3A3E068600574FF687001098ABB
:10474300828B83A3A31247C370DE02559D74F712B5
:104753000730EA4B700590139E80068A828B83A3F1
:10476300A31247C3601F8A828B83A3A3A3A3A3A31C
:10477300A3A3A3E06970E4EC600F8A828B831247E2
:104783008F70D880047A007B000248D2126C64E0F8
:10479300540422C082C08390139E80068A828B8336
:1047A300A3A31247C360128A828B83A3A3A3A3A3E9
:1047B300A3A3A3E06970E580047A007B0002559D02
:1047C300126069EA4B228A828B831254206C227412
:1047D300F21207308A0A8B0B8C0C8D0D750800754D
:1047E3000900EA450B602A90139E80068E828F8310
:1047F300A3A312481B601AAC0CAD0DEEFAEFFB85B8
:104803000A82850B831228BEE9640170DF8E088F4C
:1048130009AA08AB090244EBE0FEA3E0FFEE4F2236
:1048230074F712073090139E1263D87C007D0080CA
:104833000DE8FCE9FD88828983A3A31263D8E849C4
:104843006030EA687002EB6970E790139E1260654E
:10485300E86A7002E96B88828983A3A370081263F4
:10486300D890139E80091263D88C828D83A3A312E0
:104873005E9C805B74F7120730EAFEEBFFEE4F603D
:104883002B1222F51248BF1260651215DB8E828F40
:10489300831260651215DB1263BE60091248B11200
:1048A30060651215DBEEFAEFFB1215DB8021EE12C9
:1048B30048B622240FF582E43FF583228E828F834C
:1048C300E0F8A3E0C8125F9638F58322120C287F24
:1048D3000102099F125F708A828B8322E0F98A8228
:1048E3008B83A3A3A3A3221248EE221265ADA3A335
:1048F300A322126C78125420221248EEA3A322742E
:10490300F612073090139E12648A80308E828F8352
:10491300A3A31265CB1248BF1260651215DB8E820A
:104923008F831260651215DB1248B1126065121590
:10493300DBEEFAEFFB1215DBAE08AF09EE4F70CCDE
:1049430090139EE4F0A3F0025924C082C083EAFCD2
:10495300EBFDEC4D6017EC24FBF582ED34FF1263A5
:10496300C570071249A7E0F460071215397905806D
:1049730030901386E0C0E01249A7D0E0F0902EE219
:10498300E493F97AA07B1312156FE9640170107A2E
:10499300007B20901386E0F9121575790080027967
:1049A3000402559DEC24FFF582ED34FFF583227458
:1049B300F4120730A2AFE433F508C2AF9013A0128C
:1049C300481B603AEE24FBF582EF34FF1263C57A8D
:1049D300007B209013866007E0F91215758005E0CF
:1049E300F912157BE4F50AF50B780A120C15EEFCA7
:1049F300EFFD7AA07B131215697402120C28E508E7
:104A0300A2E092AFEEFAEFFB02376A124A13E022FA
:104A1300124A1722F08E828F83A3A3A3A3A3A322F8
:104A2300120C287F0302099F74F212073074FA12E2
:104A33000CD7EAFEEBFF7508FE7509FF1222B9E9F0
:104A430060057911024BB7124BD3603B9015E3E03D
:104A5300C43354E0F8E0333354FC48C0E0126256E8
:104A6300D0E01265E4FAA3E0FB79FF12207F8B0B01
:104A7300EA450B60127508FFEE240F124BD644046F
:104A8300F0124BD3D2E0F08E828F83126063122335
:104A9300C7E96006EE24121265FBEE2413124BD60F
:104AA300700D902EE0E493C0E0124BCAD0E0F08E7C
:104AB300828F83E0A2E7500454038019EE2414127A
:104AC3004BD67012901318E0C0E0124BBCD0E0F04C
:104AD300901318E004F0EE2411124BD66401701603
:104AE3009015CEE0600D901323E0700A8E828F83C1
:104AF300E070031265F88E828F83E064017013EE19
:104B0300240B12541664027009EE240F124BD64480
:104B130040F0AC18AD19EEFAEFFB1223258A0A8B8D
:104B23000B74FE6508700374FFF470098E828F8323
:104B3300A3A31265CBEA450B60768E828F83E0C018
:104B4300E07401120EC6D0E0F07404120EC6EEF04B
:104B5300A3EFF0EE241E1263D27402120EC6125E8D
:104B63009C7401120C91880C890D780C120C15EEB3
:104B73002420124BDE120C191248B1120A5EEE24E5
:104B83000E124BDE120C1990132C120A5E740812CB
:104B93000EC6E0F9AC08AD0912231F7408120C28E5
:104BA300E9FE74106E700BAA0AAB0B1215DB8002C0
:104BB3007E10EEF974060244E8124BC022EE241470
:104BC300F582E43FF58322EE124BCF22125B4E2295
:104BD300EE2415F582E43FF583E022F582E43FF508
:104BE30083E0F50C780C22C082C08374D7120CD7F3
:104BF30090812B7403120CA17426120B548A828B9E
:104C030083A3A3A3A31263D8740E120EC6126C70EF
:104C1300A3A31263D8740C120EC6124CF2124CE406
:104C2300125847C0E0741A120EC6D0E0F01262D3D5
:104C33001263D67420120EC6124CF2125B0D125878
:104C430047C0E07408120EC6D0E0F0EA241CF582D7
:104C5300E43B1263D67412120EC6124CF22411F501
:104C630082E4125847C0E07409120EC6D0E0F01275
:104C73004CDD125847C0E07407120EC6D0E0F0EACC
:104C8300241EF582E43B1263D67424120EC6124C22
:104C9300F22420F582E4125847C0E07426120EC6AF
:104CA300D0E0124CEA74FFF07401120EC674FFF0E8
:104CB3007402120EC674FFF0908ABA120A5A740470
:104CC300120CA17407120C99121EFF7404120C2803
:104CD30079007429120C2802559DEA2412F582E406
:104CE30022240DF582E422F085188285198322E8B7
:104CF300F0A3E9F0EA2274F412073074EC120CD733
:104D03008A0A8B0B8C088D09E9FF7E107A217B00C0
:104D13001215D5851882851983EAF0A3EB1263CDAA
:104D2300E8497003024E077C217D007900851882D3
:104D3300851983E0FA1215219013391260658518DD
:104D430082851983126C362409F582E43812657062
:104D53007420120EC61263D87411120EC612549325
:104D630012638038F5837402125497126C477402ED
:104D7300125480E508F0A3E509125497126C25EF4D
:104D8300F07422120EC6125434F9A3E0C9126884D7
:104D930039F583E8125132A3E0C9125F9639124EF6
:104DA3000E7423120EC61260657406120EC61265C7
:104DB300727408120EC6E8F07426120EC61263A4AB
:104DC300C082C083740C120EC6AC82AD83D083D074
:104DD300827405120B547425120EC6E0C0E07413DE
:104DE300120EC6D0E0F07900AA18AB191222BFE95F
:104DF300640170047E00800C85188285198312601B
:104E0300651215DBEEF97414023767F583E50AF0D2
:104E1300A3E50BF02274F012073074FF120CD7EAEB
:104E2300FEEBFF8C088D098E828F83A37408F0EE4E
:104E33002416124BD660088E828F83A37410F0EE73
:104E43002417124BD660098E828F83A3E02408F0C7
:104E5300124BD360088E828F83A3E004F08E828F7F
:104E630083A3A3A3A3A3A3E060198E828F83A3A329
:104E7300A3A3A3A3A3E0C3332402F88E828F83A347
:104E8300E028F0EE24111250ED6004740E8001E46A
:104E9300F09015DBE0640170168E828F83E064016D
:104EA300600D9012A5E060071250DA7401800412BD
:104EB30050DAE41251328E828F83A3E01250FB2822
:104EC300298C828D83F0EE2411124BD6601390133C
:104ED30024E0F9122217E9F8850882850983E0297D
:104EE300F0850882850983E0C394754009750C0039
:104EF300750D000250D1E0FA7B001215D58A0C8B98
:104F03000DEA450D70030250D18E828F83E0FA9033
:104F1300132912512B74027808120DEDEA4508FA91
:104F2300AB09EE241212512574067808120DEDA870
:104F330008EA48FCEBFD124BD36004780180027849
:104F430000EE2416FAE43FFBE4C8F9ED49FDEE2434
:104F530011124BD6F508880974097808120DEDED86
:104F63004509FD8A828B8312512B740B7808120D2D
:104F7300EDED4509FDEE2417125125740C78081246
:104F83000DEDED4509FD8E828F83A3A3A3A3A3A3F8
:104F930012512B740A7808120DEDED4509FDEE242C
:104FA30023125125740D7808120DEDECF8ED450927
:104FB300F9E8850C82850D83F0E9125137850C825F
:104FC300850D8312515AF0EE24041250E412510F4E
:104FD30012515AA3A3125B4412510FA3A3A3A3120A
:104FE3006C8B850C82850D83A3A3A3A3A3A3A3F03A
:104FF300750B088A828B83E06015EE2418125F66B6
:10500300E50C2408FAE4350DFB1216D7750B10EEE8
:105013002417124BD66019EE241A125F66A80BE50B
:105023000C28FAE4350DFB1216D77408250BF50B83
:105033008E828F83A3A3A3A3A3A3E06055EE2407CB
:10504300F50EE43FF50F850E82F583E0C0E01251C3
:1050530002D0E012514AE0C0E008125104D0E0123D
:10506300514AA31263B1120C11850E82850F83E09E
:105073001253E6A80BE50C28FAE4350DFB121515BF
:105083007403120C28850E82850F83E0C333250B2E
:10509300F50B124BD36008C0E0125102D0E0F012BE
:1050A3005E751263B1120C111250FCFC7D00740387
:1050B300120EC612511DE0F8E50C28F8E4350DF97F
:1050C300E82AFAE439FB1215157403120C28AA0C0A
:1050D300AB0D7401026393EE2423F582E43FF58361
:1050E30022F8E43FF98882898322F582E43FF5833D
:1050F300E085188285198322F8EE126A74E022A8EB
:105103000BE50C28F582E4350DF5832212511322A9
:10511300E0850C82850D83A3A322E0FA8E828F8320
:10512300A322F582E43FF583E0F508750900221216
:105133006C7EF922A312514188828983E022F0EE2A
:105143002402F8E43FF922F0050B8E828F83A3A398
:10515300A3A3A3A3A3A322A3A31265DEA3125113A4
:10516300A32274030237671263DC8E828F83A3A3A7
:105173002274F012073074FD120CD785188285193A
:10518300831265727402120EC6E9F08C0C8D0D75D4
:105193000B017C267D007900AA0CAB0D121521743E
:1051A30002120EC6E0C394085003025370E0850C4C
:1051B30082850D83F0AC0CAD0D85188285198312A1
:1051C300541CFA851882851983125A7012571312C8
:1051D3002331E96003750B008518828519831263F7
:1051E300A412543EE0F9EA850C82850D83A3A3A3A0
:1051F300A3A3A3A3A3A3F0A3E9125480A3A31254CC
:105203003EA3A3E0F9EAF8E50C126380126CB61230
:105213005493125F58C0E0E50C2411126CB3D0E034
:105223001254972407F582E438F583E0C0E0126C4A
:10523300AFD0E012546A7408125477A3E06020855B
:105243001882851983E02408F8A3E03400F9E50CFB
:105253002413126CB3E8F0A3E912637B2408F085EE
:105263000C82850D83A3A3A3A3A3A3A3A3E0602A16
:10527300850C82850D83A385820E85830F12542BA3
:10528300F8A3E03400F9E50C125B0D350D125E9ABC
:10529300850E82850F83E02408F01253EDE4F012AB
:1052A30053FDE4F0A312546AA3A3A3A3E060111275
:1052B300544F850C82850D83A3A3A3A3A312548803
:1052C300E50C12540EE0700302535C12544FFA12B1
:1052D30053EDEA125488F8851882851983E028FB78
:1052E300A3E034008B82F583E0F8E50C241A126CFA
:1052F300B3E8125488E8C39AE50C5058125409F8DD
:10530300902EE3E493C39850047E0C8006E50C12C0
:105313005409FE850C82850D8312542AF508A3E0F7
:105323003400F509750A007808120C11EE1253E6E1
:105333007A477B081215157403120C281253FD7457
:1053430047F0A37408F0EEC333F8850E82850F830C
:10535300E028800412540EE4F0850C82850D83A3AB
:10536300E0F8850C82850D83E0C3985004790080B2
:105373006F12542AFAA3E03400FBE50C1265F235F0
:105383000D126570850C82850D83E0C398C0E0E53E
:105393000C2417126CB3D0E0125477E06040E50C94
:1053A3002417FEE4350DFF8E828F83E024F2F0E5AF
:1053B3000C241DF8E4350DF988828983E0240EFA64
:1053C300A3E03400FB88828983126572901324E082
:1053D300F9122217E9F88E828F83E0C398F0A90BA4
:1053E30002639125E0FCE433FD22E50C1253F32222
:1053F3002419F582E4350DF58322E50C241BF5828F
:10540300E4350DF583221253F3E022126375350D53
:10541300F58322F582E43FF58312542022E0F8A3BA
:10542300E0F5838882E022A312542F2212543428F9
:1054330022E0F8851882851983E022A3A3E0FA8588
:1054430018828519831263AAA3A3A322850C8285DC
:105453000D83A385820E85830F12542FFAA3E034A4
:10546300008A82F583E02212546E22F0850C828535
:105473000D83A32212546EA3A3A3A3A32212549CAD
:10548300F583888222F0850E82850F83E004F02263
:10549300E8F0A3E912549CC822126C82F8A3E0221C
:1054A30074F41207308A088B09EA125548A3A3F053
:1054B300EA1313543F125540A3A3F0EAC413131283
:1054C30055481255527409780A120E60125537A3C3
:1054D300A3A3A3A3A3F0EB125539125551740A7871
:1054E3000A120E60E50A5401C0E0EC1263753DF543
:1054F30083D0E0125556740B780A120E601255379A
:1055030012554F740C780A120E60125537A31255B8
:105513004F740D780A120E60E50A5401C0E0EC24C2
:1055230024F582E43DF583D0E0F0740E7808120E82
:1055330060023761E50A54018C828D8322540F8CFB
:10554300828D83A32254038C828D8322A3A3A3A3DE
:10555300A3A3A3F08A0A8B0B22C082C08379008A9B
:10556300828B83A3A3A3A3A3A3E0901323600EE0E2
:1055730070238A828B83A3A3E0701A8016E06015E0
:105583008A828B8312605C90132CE06A7003A3E021
:105593006B600279018003126065D083D082020BB5
:1055A300D874F21207308A0A8B0B890CECFEEDFFDC
:1055B3008A828B83125711122331850A82850B83CA
:1055C300A3A3125705E0F9EA8E828F83A3A3A3A3B3
:1055D300A3A3A3A3A3125730125705A3A3E0F9EA89
:1055E300F8125E75E8125730A3A3E0C0E0EE241171
:1055F300F582E43FF583D0E0125737A3A3A3E0C0BD
:10560300E0EE124CDE3FF583D0E012571F74081210
:10561300572AA3A3A3E06016E50A2408F8E4350B90
:10562300F9EE2413125B2412571FE02408F08E8234
:105633008F83A3A3A3A3A3A3A3A3E060148E828F4A
:1056430083A31256F4EE2415125B24125D5724082B
:10565300F08E828F83A3A3A3A3A3E0601F8E828F08
:1056630083A3858208858309E0F8E50A28F582E4A7
:10567300350B1256E9A3A3125D5704F0EEFAEFFBC4
:10568300122337E9F50D70598E828F83A3A3A312DA
:105693005B1BA37014E0F8E50A28FAE4350BFBEE74
:1056A300241D12656CE50C80281256F4E8240EF8CC
:1056B300500109EE241D125E96901324E0F9122284
:1056C30017E9F8850882850983E0F9E50CC3992475
:1056D300F2C398C0E0EE2417F582E43FF583D0E0EF
:1056E300F0A90D0244EBF583E08E828F83A3A3A37D
:1056F30022858208858309E0F8E50A28F8E4350B5A
:10570300F922E0FA850A82850B83A3A3A322E0FA98
:10571300A3E0F8E4C8F9EA28E439FB22125724A3EA
:1057230022F08E828F83221265E9A3A322F0A3E9DC
:1057330012573722F0850A82850B83A3A3A3A322E2
:10574300C082C0837AAC7B1379E2121D977AAC7B5B
:105753001302559DC082C08390132C02559AC082B8
:10576300C08390132F02559AC082C083794A121DB9
:105773009702559D74F61207309013B4E0FE04F0BF
:10578300EEF91222E98B09EA450970EDEE60EAF9B8
:1057930002592474F2120730EAFEEBFF8C088D09DC
:1057A300890A122433740E120EC6E0F9740F120E16
:1057B300C6E0F8EA4B7012E8701BA90AAC08AD0901
:1057C300EEFAEFFB1224518071E86017E970068A44
:1057D300828B83E4F07401687060E99013BB7027D7
:1057E300E48021E97054EA2402F582E4125847A8C0
:1057F3000A28F8E4340013E813F0703E8A828B839E
:10580300A3A37401F08033E004F09015CBE0F8908B
:1058130013BBE0C3984023E4F090132FE06E7003B2
:10582300A3E06F7015EEFAEFFB7901121F237A01E3
:105833007B00901386E0F91216A70244EB74822AC8
:10584300F58274073BF583E02274F41207308A086B
:105853008B098C0A8D0B9089F67808120D02700E55
:105863007A017B00901386E0F9121575803190154B
:10587300B87808120E5112350460187808120C0D0E
:105883007A017B00901386E0F912169B7404120CC4
:1058930028800C7A017B00901386E0F91216A70288
:1058A300376AC082C0839015BC024233C082C08372
:1058B3009015BE02423374F61207307E0075081845
:1058C3007509137808120C157C6E7D007A217B0014
:1058D30012164D7402120C28E9640A70027E01123A
:1058E3001E75E9640A7004EED2E1FE900469126346
:1058F300C7600F125A711228BEE9640A7004EED20F
:10590300E3FE1220A3E9640A7004EED2E4FE121D42
:1059130019E9640A7004EED2E5FEEEF98003120C75
:10592300287F0202099F74F61207301214D97508F2
:10593300187509137808120C1575086E7509007827
:1059430008120C157C007D007A217B001216597415
:1059530004120C28121E7B90046B1263C76006129C
:105963005A711228BE1220A9121D2B80B474F6128C
:10597300073074FF120CD77E007508187509137869
:1059830008120C157C6E7D007A217B0012164D7473
:1059930002120C28E96003025A557808120C157597
:1059A300086E8E097808120C157C007D007A217B25
:1059B3000012165F7404120C28E96003025A559012
:1059C300132CE064FE7003A3E0F47003025A557EC7
:1059D3000190133BE064086005E06404706F851870
:1059E30082851983EE125B617942121D9D7A437B96
:1059F300137943121D9D7A407B137947121D9D7ABB
:105A0300317B13794A121D9D7A2F7B13794B121D1B
:105A13009D7A397B137950121D9D7A2C7B13795310
:105A2300121D9D7A417B137954121D9D7A2E7B138F
:105A330079E1121D9D901326E0A2E35004D2F08079
:105A430002C2F0125B577952121D9D80051214D9C0
:105A53007E00121E6990046D1263C76006125A71AC
:105A63001228BE1220B5EEF97401025921A3126364
:105A7300AB2274F6120730E9FEA2E050267508182F
:105A83007509137808120C1575086E7509007808E6
:105A9300120C157C007D007A217B001216597404C8
:105AA300120C28EEA2E35003121E6FEEA2E2500E78
:105AB30090046F1263C76006125A711228BE02590E
:105AC3002474F712073074ED120CD7E9FE90138596
:105AD300F0AC18AD199015F9E0F97A897B1312220D
:105AE300A17412120EC6EE125B02AA18AB1912228F
:105AF3009B7A897B137945121D9D74130248CFF05D
:105B03009015F9E0F97C897D13222415F582E422AE
:105B13001264813509F58322A3A3A3E08E828F83C8
:105B230022F582E43FF583E8F0A3E922EE126481D3
